S0160000464F535F436F6E74726F6C6C65722E73726563A3
S11300000C944D000C946A000C946A000C946A00E1
S11300100C946A000C946A000C946A000C946A00B4
S11300200C946A000C946A000C946A000C946A00A4
S11300300C946A000C946A000C946A000C946A0094
S11300400C946A000C94F1010C946A000C946A00FC
S11300500C946A000C946A000C946A000C946A0074
S11300600C946A000C946A000C946A000C946A0064
S11300700C946A000C946A000C94A0020C946A001C
S11300800C94C9020C946A000C946A00F1001E01DD
S11300903601420157017E018A0111241FBECFEFB0
S11300A0D0E1DEBFCDBF11E0A0E0B1E0E2E8F6E0D0
S11300B002C005900D92AC30B107D9F721E0ACE055
S11300C0B1E001C01D92AB31B207E1F70E94B30069
S11300D00C943F030C9400008032A0F5E1E6F0E0BC
S11300E0908197609083E2E6F0E09081108225E0B1
S11300F030E0A82FB0E090819D7F908390819E7F17
S113010090834081BD01022E02C0759567950A94C3
S1130110E2F7962F9170942B908390819260908354
S11301202150310940F7E2E6F0E080818D7F808341
S113013080818E7F8083808184608083808110822F
S113014081E108958EEF089592B19C6092B98F3049
S113015019F41B981A9A04C0803F11F41A981B9A38
S113016081E090E008950E941B03BD9A0E9454020E
S11301700E949A0182E191E00E94A501C59A00E0E3
S113018010E0CCE0D1E0E12CF12C0F2EF0E0CF2EEA
S1130190F1E0DF2EF02D0F2EF6E02F2EF02D312C76
S11301A00F2EF5E04F2EF02D512C6894662461F843
S11301B0712C0F2EF3E08F2EF02D912C6894AA242D
S11301C0A2F8B12C05C00A2D1B2D02C0042D152D3B
S11301D0E02FF12FE730F105D8F7EA5BFF4F0C94DD
S11301E0390341E064E071E0CE010E941E038D8179
S11301F08823E9F380910401873559F445E064E0EC
S113020071E0CE010E941E038D818823E9F301E091
S113021010E080910401823529F0833341F08A3A59
S113022091F202C0062D172D8F3F81F202C0082DD6
S1130230192D823169F6022D132DCACFE4E0F1E0C5
S11302408281D6018C93838111968C93119784813A
S113025012968C931297858113968C938081B601A4
S113026090E00E9417020E2D1F2DB2CF45E064E0EE
S113027071E0CE010E94F4028D818823E9F30E2DF2
S11302801F2DA6CF41E064E071E0CE010E941E0361
S11302908D818823E9F380910401813021F4C59A8A
S11302A00E2D1F2D95CFC5980E2D1F2D91CF41E0FA
S11302B064E071E0CE010E941E038D818823E9F37E
S11302C0809104010E946C00813161F441E064E09A
S11302D071E0CE010E94F4028D818823E9F30E2D92
S11302E01F2D76CF41E06AE071E0CE010E94F40256
S11302F08D818823E9F30E2D1F2D6ACF809105018E
S1130300813021F4C49A0E2D1F2D62CFC4980E2D76
S11303101F2D5ECF41E064E071E0CE010E941E0318
S11303208D818823E9F3809104010E94A4000E2D9D
S11303301F2D4ECF87B3876087BB88B3896088BB86
S11303408DB18F6D8DB9739A0895FC011682118257
S11303501082138212821582148217820895FC017E
S11303608681811110C0718360835383428330E09E
S113037035832483C098DA018C918FB9828193816B
S11303800196938382830895CF93DF93FC01C08108
S1130390D181A281B3818FB190E0998388838681D2
S11303A090E0248135818217930729F481E08783C3
S11303B01682C09A979A8781811110C086818F5FB7
S11303C08683808191810196918380838D919C9114
S11303D08FB982819381019693838283DF91CF9138
S11303E008951F920F920FB60F9211242F933F93EB
S11303F04F935F936F937F938F939F93AF93BF9329
S1130400EF93FF9382E191E00E94C401FF91EF9189
S1130410BF91AF919F918F917F916F915F914F9118
S11304203F912F910F900FBE0F901F901895FF9240
S11304300F931F93CF93DF93CDB7DEB728970FB6F3
S1130440F894DEBF0FBECDBFF82E8B0182E191E0A0
S11304500E94A5018F2D880F880F880FF8019081C5
S1130460892B8D8381818E8382818F838381888789
S113047023E0AE014B5F5F4FBE016F5F7F4F82E1B0
S113048091E00E94AF01E2E1F1E087818823E9F382
S113049028960FB6F894DEBF0FBECDBFDF91CF9183
S11304A01F910F91FF900895109298008FE280930E
S11304B09900EAE9F0E0808188618083EDE9F0E069
S11304C080818C6080830895FC0180911A018130C1
S11304D0D1F4A181B28180919C008C93818192811D
S11304E001969283818384818F5F848393818913AE
S11304F026C0148281E08583EAE9F0E080818F7769
S11305008083979A089594818381981781F0A181BB
S1130510B2818C9180939C00818192810196928317
S1130520818384818F5F84839381891308C01482BB
S113053081E08583EAE9F0E080818F7B8083089500
S11305401F920F920FB60F9211242F933F934F9344
S11305505F936F937F938F939F93AF93BF93EF9327
S1130560FF9381E080931A018CE091E00E94640281
S1130570FF91EF91BF91AF919F918F917F916F9177
S11305805F914F913F912F910F900FBE0F901F904D
S113059018951F920F920FB60F9211242F933F9329
S11305A04F935F936F937F938F939F93AF93BF9377
S11305B0EF93FF9310921A018CE091E00E94640281
S11305C0FF91EF91BF91AF919F918F917F916F9127
S11305D05F914F913F912F910F900FBE0F901F90FD
S11305E018958D9A959A0895FF920F931F93CF9320
S11305F0DF93EC018B01F42E0E94F102FB821A833B
S113060009831C821D82F801808180939C0089816A
S11306109A8101969A8389838C818F5F8C83EAE91E
S1130620F0E08081806480837894DF91CF911F9182
S11306300F91FF9008958D9A95980895FF920F93C6
S11306401F93CF93DF93EC018B01F42E0E941B03C5
S1130650FB821A8309831C821D82EAE9F0E080810F
S1130660806880837894DF91CF911F910F91FF90E0
S11306700895EE0FFF1F0590F491E02D0994F8946E
S1050680FFCFA6
S10F068200AF0B3400347FC80000FE0001
S9030000FC
